{
    "contractName": "ReviewProject",
    "abi": [
        {
            "inputs": [
                {
                    "internalType": "string",
                    "name": "_name",
                    "type": "string"
                },
                {
                    "internalType": "string",
                    "name": "_symbol",
                    "type": "string"
                },
                {
                    "internalType": "string",
                    "name": "_baseURI",
                    "type": "string"
                }
            ],
            "stateMutability": "nonpayable",
            "type": "constructor"
        },
        {
            "anonymous": false,
            "inputs": [
                {
                    "indexed": true,
                    "internalType": "address",
                    "name": "account",
                    "type": "address"
                },
                {
                    "indexed": true,
                    "internalType": "address",
                    "name": "operator",
                    "type": "address"
                },
                {
                    "indexed": false,
                    "internalType": "bool",
                    "name": "approved",
                    "type": "bool"
                }
            ],
            "name": "ApprovalForAll",
            "type": "event"
        },
        {
            "anonymous": false,
            "inputs": [
                {
                    "indexed": true,
                    "internalType": "address",
                    "name": "previousOwner",
                    "type": "address"
                },
                {
                    "indexed": true,
                    "internalType": "address",
                    "name": "newOwner",
                    "type": "address"
                }
            ],
            "name": "OwnershipTransferred",
            "type": "event"
        },
        {
            "anonymous": false,
            "inputs": [
                {
                    "indexed": true,
                    "internalType": "address",
                    "name": "operator",
                    "type": "address"
                },
                {
                    "indexed": true,
                    "internalType": "address",
                    "name": "from",
                    "type": "address"
                },
                {
                    "indexed": true,
                    "internalType": "address",
                    "name": "to",
                    "type": "address"
                },
                {
                    "indexed": false,
                    "internalType": "uint256[]",
                    "name": "ids",
                    "type": "uint256[]"
                },
                {
                    "indexed": false,
                    "internalType": "uint256[]",
                    "name": "values",
                    "type": "uint256[]"
                }
            ],
            "name": "TransferBatch",
            "type": "event"
        },
        {
            "anonymous": false,
            "inputs": [
                {
                    "indexed": true,
                    "internalType": "address",
                    "name": "operator",
                    "type": "address"
                },
                {
                    "indexed": true,
                    "internalType": "address",
                    "name": "from",
                    "type": "address"
                },
                {
                    "indexed": true,
                    "internalType": "address",
                    "name": "to",
                    "type": "address"
                },
                {
                    "indexed": false,
                    "internalType": "uint256",
                    "name": "id",
                    "type": "uint256"
                },
                {
                    "indexed": false,
                    "internalType": "uint256",
                    "name": "value",
                    "type": "uint256"
                }
            ],
            "name": "TransferSingle",
            "type": "event"
        },
        {
            "anonymous": false,
            "inputs": [
                {
                    "indexed": false,
                    "internalType": "string",
                    "name": "value",
                    "type": "string"
                },
                {
                    "indexed": true,
                    "internalType": "uint256",
                    "name": "id",
                    "type": "uint256"
                }
            ],
            "name": "URI",
            "type": "event"
        },
        {
            "inputs": [
                {
                    "internalType": "address",
                    "name": "account",
                    "type": "address"
                },
                {
                    "internalType": "uint256",
                    "name": "id",
                    "type": "uint256"
                }
            ],
            "name": "balanceOf",
            "outputs": [
                {
                    "internalType": "uint256",
                    "name": "",
                    "type": "uint256"
                }
            ],
            "stateMutability": "view",
            "type": "function"
        },
        {
            "inputs": [
                {
                    "internalType": "address[]",
                    "name": "accounts",
                    "type": "address[]"
                },
                {
                    "internalType": "uint256[]",
                    "name": "ids",
                    "type": "uint256[]"
                }
            ],
            "name": "balanceOfBatch",
            "outputs": [
                {
                    "internalType": "uint256[]",
                    "name": "",
                    "type": "uint256[]"
                }
            ],
            "stateMutability": "view",
            "type": "function"
        },
        {
            "inputs": [],
            "name": "baseURI",
            "outputs": [
                {
                    "internalType": "string",
                    "name": "",
                    "type": "string"
                }
            ],
            "stateMutability": "view",
            "type": "function"
        },
        {
            "inputs": [
                {
                    "internalType": "string",
                    "name": "project",
                    "type": "string"
                },
                {
                    "internalType": "string",
                    "name": "title",
                    "type": "string"
                },
                {
                    "internalType": "string",
                    "name": "comment",
                    "type": "string"
                },
                {
                    "internalType": "uint256",
                    "name": "like",
                    "type": "uint256"
                }
            ],
            "name": "createReview",
            "outputs": [],
            "stateMutability": "nonpayable",
            "type": "function"
        },
        {
            "inputs": [
                {
                    "internalType": "string",
                    "name": "project",
                    "type": "string"
                }
            ],
            "name": "getReviewsForProject",
            "outputs": [
                {
                    "components": [
                        {
                            "internalType": "uint256",
                            "name": "id",
                            "type": "uint256"
                        },
                        {
                            "internalType": "string",
                            "name": "project",
                            "type": "string"
                        },
                        {
                            "internalType": "string",
                            "name": "title",
                            "type": "string"
                        },
                        {
                            "internalType": "string",
                            "name": "comment",
                            "type": "string"
                        },
                        {
                            "internalType": "uint256",
                            "name": "like",
                            "type": "uint256"
                        }
                    ],
                    "internalType": "struct ReviewProject.Review[]",
                    "name": "",
                    "type": "tuple[]"
                }
            ],
            "stateMutability": "view",
            "type": "function"
        },
        {
            "inputs": [
                {
                    "internalType": "address",
                    "name": "reviewer",
                    "type": "address"
                },
                {
                    "internalType": "string",
                    "name": "project",
                    "type": "string"
                }
            ],
            "name": "getReviewsForUser",
            "outputs": [
                {
                    "components": [
                        {
                            "internalType": "uint256",
                            "name": "id",
                            "type": "uint256"
                        },
                        {
                            "internalType": "string",
                            "name": "project",
                            "type": "string"
                        },
                        {
                            "internalType": "string",
                            "name": "title",
                            "type": "string"
                        },
                        {
                            "internalType": "string",
                            "name": "comment",
                            "type": "string"
                        },
                        {
                            "internalType": "uint256",
                            "name": "like",
                            "type": "uint256"
                        }
                    ],
                    "internalType": "struct ReviewProject.Review",
                    "name": "",
                    "type": "tuple"
                }
            ],
            "stateMutability": "view",
            "type": "function"
        },
        {
            "inputs": [
                {
                    "internalType": "address",
                    "name": "account",
                    "type": "address"
                },
                {
                    "internalType": "address",
                    "name": "operator",
                    "type": "address"
                }
            ],
            "name": "isApprovedForAll",
            "outputs": [
                {
                    "internalType": "bool",
                    "name": "",
                    "type": "bool"
                }
            ],
            "stateMutability": "view",
            "type": "function"
        },
        {
            "inputs": [
                {
                    "internalType": "address",
                    "name": "to",
                    "type": "address"
                },
                {
                    "internalType": "uint256",
                    "name": "id",
                    "type": "uint256"
                },
                {
                    "internalType": "string",
                    "name": "_uri",
                    "type": "string"
                }
            ],
            "name": "mintReviewNFT",
            "outputs": [],
            "stateMutability": "nonpayable",
            "type": "function"
        },
        {
            "inputs": [],
            "name": "name",
            "outputs": [
                {
                    "internalType": "string",
                    "name": "",
                    "type": "string"
                }
            ],
            "stateMutability": "view",
            "type": "function"
        },
        {
            "inputs": [],
            "name": "owner",
            "outputs": [
                {
                    "internalType": "address",
                    "name": "",
                    "type": "address"
                }
            ],
            "stateMutability": "view",
            "type": "function"
        },
        {
            "inputs": [],
            "name": "renounceOwnership",
            "outputs": [],
            "stateMutability": "nonpayable",
            "type": "function"
        },
        {
            "inputs": [
                {
                    "internalType": "address",
                    "name": "from",
                    "type": "address"
                },
                {
                    "internalType": "address",
                    "name": "to",
                    "type": "address"
                },
                {
                    "internalType": "uint256[]",
                    "name": "ids",
                    "type": "uint256[]"
                },
                {
                    "internalType": "uint256[]",
                    "name": "amounts",
                    "type": "uint256[]"
                },
                {
                    "internalType": "bytes",
                    "name": "data",
                    "type": "bytes"
                }
            ],
            "name": "safeBatchTransferFrom",
            "outputs": [],
            "stateMutability": "nonpayable",
            "type": "function"
        },
        {
            "inputs": [
                {
                    "internalType": "address",
                    "name": "from",
                    "type": "address"
                },
                {
                    "internalType": "address",
                    "name": "to",
                    "type": "address"
                },
                {
                    "internalType": "uint256",
                    "name": "id",
                    "type": "uint256"
                },
                {
                    "internalType": "uint256",
                    "name": "amount",
                    "type": "uint256"
                },
                {
                    "internalType": "bytes",
                    "name": "data",
                    "type": "bytes"
                }
            ],
            "name": "safeTransferFrom",
            "outputs": [],
            "stateMutability": "nonpayable",
            "type": "function"
        },
        {
            "inputs": [
                {
                    "internalType": "address",
                    "name": "operator",
                    "type": "address"
                },
                {
                    "internalType": "bool",
                    "name": "approved",
                    "type": "bool"
                }
            ],
            "name": "setApprovalForAll",
            "outputs": [],
            "stateMutability": "nonpayable",
            "type": "function"
        },
        {
            "inputs": [
                {
                    "internalType": "string",
                    "name": "_uri",
                    "type": "string"
                },
                {
                    "internalType": "uint256",
                    "name": "id",
                    "type": "uint256"
                }
            ],
            "name": "setTokenUri",
            "outputs": [],
            "stateMutability": "nonpayable",
            "type": "function"
        },
        {
            "inputs": [
                {
                    "internalType": "bytes4",
                    "name": "interfaceId",
                    "type": "bytes4"
                }
            ],
            "name": "supportsInterface",
            "outputs": [
                {
                    "internalType": "bool",
                    "name": "",
                    "type": "bool"
                }
            ],
            "stateMutability": "view",
            "type": "function"
        },
        {
            "inputs": [],
            "name": "symbol",
            "outputs": [
                {
                    "internalType": "string",
                    "name": "",
                    "type": "string"
                }
            ],
            "stateMutability": "view",
            "type": "function"
        },
        {
            "inputs": [
                {
                    "internalType": "address",
                    "name": "newOwner",
                    "type": "address"
                }
            ],
            "name": "transferOwnership",
            "outputs": [],
            "stateMutability": "nonpayable",
            "type": "function"
        },
        {
            "inputs": [
                {
                    "internalType": "address",
                    "name": "reviewer",
                    "type": "address"
                },
                {
                    "internalType": "uint256",
                    "name": "reviewID",
                    "type": "uint256"
                },
                {
                    "internalType": "string",
                    "name": "project",
                    "type": "string"
                },
                {
                    "internalType": "string",
                    "name": "title",
                    "type": "string"
                },
                {
                    "internalType": "string",
                    "name": "comment",
                    "type": "string"
                },
                {
                    "internalType": "uint256",
                    "name": "like",
                    "type": "uint256"
                }
            ],
            "name": "updateReview",
            "outputs": [],
            "stateMutability": "nonpayable",
            "type": "function"
        },
        {
            "inputs": [
                {
                    "internalType": "uint256",
                    "name": "id",
                    "type": "uint256"
                }
            ],
            "name": "uri",
            "outputs": [
                {
                    "internalType": "string",
                    "name": "",
                    "type": "string"
                }
            ],
            "stateMutability": "view",
            "type": "function"
        }
    ],
    "bytecode": "60806040523480156200001157600080fd5b5060405162002521380380620025218339810160408190526200003491620001c1565b6040805160208101909152600081526200004e8162000090565b506200005a33620000a2565b6004620000688482620002e1565b506005620000778382620002e1565b506006620000868282620002e1565b50505050620003ad565b60026200009e8282620002e1565b5050565b600380546001600160a01b038381166001600160a01b0319831681179093556040519116919082907f8be0079c531659141344cd1fd0a4f28419497f9722a3daafe3b4186f6b6457e090600090a35050565b634e487b7160e01b600052604160045260246000fd5b600082601f8301126200011c57600080fd5b81516001600160401b0380821115620001395762000139620000f4565b604051601f8301601f19908116603f01168101908282118183101715620001645762000164620000f4565b816040528381526020925086838588010111156200018157600080fd5b600091505b83821015620001a5578582018301518183018401529082019062000186565b83821115620001b75760008385830101525b9695505050505050565b600080600060608486031215620001d757600080fd5b83516001600160401b0380821115620001ef57600080fd5b620001fd878388016200010a565b945060208601519150808211156200021457600080fd5b62000222878388016200010a565b935060408601519150808211156200023957600080fd5b5062000248868287016200010a565b9150509250925092565b600181811c908216806200026757607f821691505b6020821081036200028857634e487b7160e01b600052602260045260246000fd5b50919050565b601f821115620002dc57600081815260208120601f850160051c81016020861015620002b75750805b601f850160051c820191505b81811015620002d857828155600101620002c3565b5050505b505050565b81516001600160401b03811115620002fd57620002fd620000f4565b62000315816200030e845462000252565b846200028e565b602080601f8311600181146200034d5760008415620003345750858301515b600019600386901b1c1916600185901b178555620002d8565b600085815260208120601f198616915b828110156200037e578886015182559484019460019091019084016200035d565b50858210156200039d5787850151600019600388901b60f8161c191681555b5050505050600190811b01905550565b61216480620003bd6000396000f3fe608060405234801561001057600080fd5b506004361061012b5760003560e01c8063715018a6116100ad578063c957edd211610071578063c957edd214610282578063d480924d14610295578063e985e9c5146102a8578063f242432a146102e4578063f2fde38b146102f257600080fd5b8063715018a6146102315780638da5cb5b1461023957806395d89b4114610254578063a22cb4651461025c578063b90278b31461026f57600080fd5b80633c0d92d1116100f45780633c0d92d1146101b65780633e99987f146101c95780634e1273f4146101e957806354c813d6146102095780636c0360eb1461022957600080fd5b8062fdd58e1461013057806301ffc9a71461015657806306fdde03146101795780630e89341c1461018e5780632eb2c2d6146101a1575b600080fd5b61014361013e366004611630565b610305565b6040519081526020015b60405180910390f35b610169610164366004611670565b61039c565b604051901515815260200161014d565b6101816103ee565b60405161014d91906116f0565b61018161019c366004611703565b61047c565b6101b46101af366004611865565b61051e565b005b6101b46101c436600461190e565b61055d565b6101dc6101d7366004611964565b6105b2565b60405161014d9190611a1a565b6101fc6101f7366004611a2d565b6107f6565b60405161014d9190611aed565b61021c610217366004611b31565b61091f565b60405161014d9190611b6d565b610181610b61565b6101b4610b6e565b6003546040516001600160a01b03909116815260200161014d565b610181610ba4565b6101b461026a366004611bcf565b610bb1565b6101b461027d366004611c0b565b610bc0565b6101b4610290366004611c9a565b610d9b565b6101b46102a3366004611d44565b611102565b6101696102b6366004611d88565b6001600160a01b03918216600090815260016020908152604080832093909416825291909152205460ff1690565b6101b46101af366004611dbb565b6101b4610300366004611e1f565b611144565b60006001600160a01b0383166103765760405162461bcd60e51b815260206004820152602b60248201527f455243313135353a2062616c616e636520717565727920666f7220746865207a60448201526a65726f206164647265737360a81b60648201526084015b60405180910390fd5b506000908152602081815260408083206001600160a01b03949094168352929052205490565b60006001600160e01b03198216636cdb3d1360e11b14806103cd57506001600160e01b031982166303a24d0760e21b145b806103e857506301ffc9a760e01b6001600160e01b03198316145b92915050565b600480546103fb90611e3a565b80601f016020809104026020016040519081016040528092919081815260200182805461042790611e3a565b80156104745780601f1061044957610100808354040283529160200191610474565b820191906000526020600020905b81548152906001019060200180831161045757829003601f168201915b505050505081565b6000818152600a6020526040902080546060919061049990611e3a565b80601f01602080910402602001604051908101604052809291908181526020018280546104c590611e3a565b80156105125780601f106104e757610100808354040283529160200191610512565b820191906000526020600020905b8154815290600101906020018083116104f557829003601f168201915b50505050509050919050565b60405162461bcd60e51b8152602060048201526014602482015273151c985b9cd9995c881b9bdd08185b1b1bddd95960621b604482015260640161036d565b6003546001600160a01b031633146105875760405162461bcd60e51b815260040161036d90611e74565b6105918183611102565b6105ad83836001604051806020016040528060008152506111df565b505050565b6105e46040518060a0016040528060008152602001606081526020016060815260200160608152602001600081525090565b6001600160a01b03831660009081526009602052604090819020905161060b908490611ea9565b90815260200160405180910390206040518060a00160405290816000820154815260200160018201805461063e90611e3a565b80601f016020809104026020016040519081016040528092919081815260200182805461066a90611e3a565b80156106b75780601f1061068c576101008083540402835291602001916106b7565b820191906000526020600020905b81548152906001019060200180831161069a57829003601f168201915b505050505081526020016002820180546106d090611e3a565b80601f01602080910402602001604051908101604052809291908181526020018280546106fc90611e3a565b80156107495780601f1061071e57610100808354040283529160200191610749565b820191906000526020600020905b81548152906001019060200180831161072c57829003601f168201915b5050505050815260200160038201805461076290611e3a565b80601f016020809104026020016040519081016040528092919081815260200182805461078e90611e3a565b80156107db5780601f106107b0576101008083540402835291602001916107db565b820191906000526020600020905b8154815290600101906020018083116107be57829003601f168201915b50505050508152602001600482015481525050905092915050565b6060815183511461085b5760405162461bcd60e51b815260206004820152602960248201527f455243313135353a206163636f756e747320616e6420696473206c656e677468604482015268040dad2e6dac2e8c6d60bb1b606482015260840161036d565b600083516001600160401b038111156108765761087661171c565b60405190808252806020026020018201604052801561089f578160200160208202803683370190505b50905060005b8451811015610917576108ea8582815181106108c3576108c3611ec5565b60200260200101518583815181106108dd576108dd611ec5565b6020026020010151610305565b8282815181106108fc576108fc611ec5565b602090810291909101015261091081611ef1565b90506108a5565b509392505050565b60606008826040516109319190611ea9565b908152604080519182900360209081018320805480830285018301909352828452919060009084015b82821015610b5657838290600052602060002090600502016040518060a00160405290816000820154815260200160018201805461099790611e3a565b80601f01602080910402602001604051908101604052809291908181526020018280546109c390611e3a565b8015610a105780601f106109e557610100808354040283529160200191610a10565b820191906000526020600020905b8154815290600101906020018083116109f357829003601f168201915b50505050508152602001600282018054610a2990611e3a565b80601f0160208091040260200160405190810160405280929190818152602001828054610a5590611e3a565b8015610aa25780601f10610a7757610100808354040283529160200191610aa2565b820191906000526020600020905b815481529060010190602001808311610a8557829003601f168201915b50505050508152602001600382018054610abb90611e3a565b80601f0160208091040260200160405190810160405280929190818152602001828054610ae790611e3a565b8015610b345780601f10610b0957610100808354040283529160200191610b34565b820191906000526020600020905b815481529060010190602001808311610b1757829003601f168201915b505050505081526020016004820154815250508152602001906001019061095a565b505050509050919050565b600680546103fb90611e3a565b6003546001600160a01b03163314610b985760405162461bcd60e51b815260040161036d90611e74565b610ba260006112f3565b565b600580546103fb90611e3a565b610bbc338383611345565b5050565b33600081815260096020526040908190209051869190610be1908390611ea9565b9081526040519081900360200190205415610c365760405162461bcd60e51b815260206004820152601560248201527452657669657720616c72656164792065786973747360581b604482015260640161036d565b610c44600780546001019055565b60006040518060a00160405280610c5a60075490565b81526020018881526020018781526020018681526020018581525090508060096000336001600160a01b03166001600160a01b0316815260200190815260200160002088604051610cab9190611ea9565b9081526040516020918190038201902082518155908201516001820190610cd29082611f50565b5060408201516002820190610ce79082611f50565b5060608201516003820190610cfc9082611f50565b5060808201518160040155905050600887604051610d1a9190611ea9565b90815260405160209181900382019020805460018082018355600092835291839020845160059092020190815591830151839291820190610d5b9082611f50565b5060408201516002820190610d709082611f50565b5060608201516003820190610d859082611f50565b5060808201518160040155505050505050505050565b60006040518060a001604052808781526020018681526020018581526020018481526020018381525090508060096000896001600160a01b03166001600160a01b0316815260200190815260200160002086604051610dfa9190611ea9565b9081526040516020918190038201902082518155908201516001820190610e219082611f50565b5060408201516002820190610e369082611f50565b5060608201516003820190610e4b9082611f50565b50608082015181600401559050506000600886604051610e6b9190611ea9565b908152604080519182900360209081018320805480830285018301909352828452919060009084015b8282101561109057838290600052602060002090600502016040518060a001604052908160008201548152602001600182018054610ed190611e3a565b80601f0160208091040260200160405190810160405280929190818152602001828054610efd90611e3a565b8015610f4a5780601f10610f1f57610100808354040283529160200191610f4a565b820191906000526020600020905b815481529060010190602001808311610f2d57829003601f168201915b50505050508152602001600282018054610f6390611e3a565b80601f0160208091040260200160405190810160405280929190818152602001828054610f8f90611e3a565b8015610fdc5780601f10610fb157610100808354040283529160200191610fdc565b820191906000526020600020905b815481529060010190602001808311610fbf57829003601f168201915b50505050508152602001600382018054610ff590611e3a565b80601f016020809104026020016040519081016040528092919081815260200182805461102190611e3a565b801561106e5780601f106110435761010080835404028352916020019161106e565b820191906000526020600020905b81548152906001019060200180831161105157829003601f168201915b5050505050815260200160048201548152505081526020019060010190610e94565b50505050905060005b81518110156110f757878282815181106110b5576110b5611ec5565b602002602001015160000151036110e557828282815181106110d9576110d9611ec5565b60200260200101819052505b806110ef81611ef1565b915050611099565b505050505050505050565b6003546001600160a01b0316331461112c5760405162461bcd60e51b815260040161036d90611e74565b6000818152600a602052604090206105ad8382611f50565b6003546001600160a01b0316331461116e5760405162461bcd60e51b815260040161036d90611e74565b6001600160a01b0381166111d35760405162461bcd60e51b815260206004820152602660248201527f4f776e61626c653a206e6577206f776e657220697320746865207a65726f206160448201526564647265737360d01b606482015260840161036d565b6111dc816112f3565b50565b6001600160a01b03841661123f5760405162461bcd60e51b815260206004820152602160248201527f455243313135353a206d696e7420746f20746865207a65726f206164647265736044820152607360f81b606482015260840161036d565b33600061124b85611425565b9050600061125885611425565b90506000868152602081815260408083206001600160a01b038b1684529091528120805487929061128a90849061200f565b909155505060408051878152602081018790526001600160a01b03808a1692600092918716917fc3d58168c5ae7397731d063d5bbf3d657854427343f4c083240f7aacaa2d0f62910160405180910390a46112ea83600089898989611478565b50505050505050565b600380546001600160a01b038381166001600160a01b0319831681179093556040519116919082907f8be0079c531659141344cd1fd0a4f28419497f9722a3daafe3b4186f6b6457e090600090a35050565b816001600160a01b0316836001600160a01b0316036113b85760405162461bcd60e51b815260206004820152602960248201527f455243313135353a2073657474696e6720617070726f76616c20737461747573604482015268103337b91039b2b63360b91b606482015260840161036d565b6001600160a01b03838116600081815260016020908152604080832094871680845294825291829020805460ff191686151590811790915591519182527f17307eab39ab6107e8899845ad3d59bd9653f200f220920489ca2b5937696c31910160405180910390a3505050565b6040805160018082528183019092526060916000919060208083019080368337019050509050828160008151811061145f5761145f611ec5565b602090810291909101015292915050565b505050505050565b6001600160a01b0384163b156114705760405163f23a6e6160e01b81526001600160a01b0385169063f23a6e61906114bc9089908990889088908890600401612027565b6020604051808303816000875af19250505080156114f7575060408051601f3d908101601f191682019092526114f49181019061206c565b60015b6115a357611503612089565b806308c379a00361153c57506115176120a5565b80611522575061153e565b8060405162461bcd60e51b815260040161036d91906116f0565b505b60405162461bcd60e51b815260206004820152603460248201527f455243313135353a207472616e7366657220746f206e6f6e20455243313135356044820152732932b1b2b4bb32b91034b6b83632b6b2b73a32b960611b606482015260840161036d565b6001600160e01b0319811663f23a6e6160e01b146112ea5760405162461bcd60e51b815260206004820152602860248201527f455243313135353a204552433131353552656365697665722072656a656374656044820152676420746f6b656e7360c01b606482015260840161036d565b80356001600160a01b038116811461162b57600080fd5b919050565b6000806040838503121561164357600080fd5b61164c83611614565b946020939093013593505050565b6001600160e01b0319811681146111dc57600080fd5b60006020828403121561168257600080fd5b813561168d8161165a565b9392505050565b60005b838110156116af578181015183820152602001611697565b838111156116be576000848401525b50505050565b600081518084526116dc816020860160208601611694565b601f01601f19169290920160200192915050565b60208152600061168d60208301846116c4565b60006020828403121561171557600080fd5b5035919050565b634e487b7160e01b600052604160045260246000fd5b601f8201601f191681016001600160401b03811182821017156117575761175761171c565b6040525050565b60006001600160401b038211156117775761177761171c565b5060051b60200190565b600082601f83011261179257600080fd5b8135602061179f8261175e565b6040516117ac8282611732565b83815260059390931b85018201928281019150868411156117cc57600080fd5b8286015b848110156117e757803583529183019183016117d0565b509695505050505050565b600082601f83011261180357600080fd5b81356001600160401b0381111561181c5761181c61171c565b604051611833601f8301601f191660200182611732565b81815284602083860101111561184857600080fd5b816020850160208301376000918101602001919091529392505050565b600080600080600060a0868803121561187d57600080fd5b61188686611614565b945061189460208701611614565b935060408601356001600160401b03808211156118b057600080fd5b6118bc89838a01611781565b945060608801359150808211156118d257600080fd5b6118de89838a01611781565b935060808801359150808211156118f457600080fd5b50611901888289016117f2565b9150509295509295909350565b60008060006060848603121561192357600080fd5b61192c84611614565b92506020840135915060408401356001600160401b0381111561194e57600080fd5b61195a868287016117f2565b9150509250925092565b6000806040838503121561197757600080fd5b61198083611614565b915060208301356001600160401b0381111561199b57600080fd5b6119a7858286016117f2565b9150509250929050565b805182526000602082015160a060208501526119d060a08501826116c4565b9050604083015184820360408601526119e982826116c4565b91505060608301518482036060860152611a0382826116c4565b915050608083015160808501528091505092915050565b60208152600061168d60208301846119b1565b60008060408385031215611a4057600080fd5b82356001600160401b0380821115611a5757600080fd5b818501915085601f830112611a6b57600080fd5b81356020611a788261175e565b604051611a858282611732565b83815260059390931b8501820192828101915089841115611aa557600080fd5b948201945b83861015611aca57611abb86611614565b82529482019490820190611aaa565b96505086013592505080821115611ae057600080fd5b506119a785828601611781565b6020808252825182820181905260009190848201906040850190845b81811015611b2557835183529284019291840191600101611b09565b50909695505050505050565b600060208284031215611b4357600080fd5b81356001600160401b03811115611b5957600080fd5b611b65848285016117f2565b949350505050565b6000602080830181845280855180835260408601915060408160051b870101925083870160005b82811015611bc257603f19888603018452611bb08583516119b1565b94509285019290850190600101611b94565b5092979650505050505050565b60008060408385031215611be257600080fd5b611beb83611614565b915060208301358015158114611c0057600080fd5b809150509250929050565b60008060008060808587031215611c2157600080fd5b84356001600160401b0380821115611c3857600080fd5b611c44888389016117f2565b95506020870135915080821115611c5a57600080fd5b611c66888389016117f2565b94506040870135915080821115611c7c57600080fd5b50611c89878288016117f2565b949793965093946060013593505050565b60008060008060008060c08789031215611cb357600080fd5b611cbc87611614565b95506020870135945060408701356001600160401b0380821115611cdf57600080fd5b611ceb8a838b016117f2565b95506060890135915080821115611d0157600080fd5b611d0d8a838b016117f2565b94506080890135915080821115611d2357600080fd5b50611d3089828a016117f2565b92505060a087013590509295509295509295565b60008060408385031215611d5757600080fd5b82356001600160401b03811115611d6d57600080fd5b611d79858286016117f2565b95602094909401359450505050565b60008060408385031215611d9b57600080fd5b611da483611614565b9150611db260208401611614565b90509250929050565b600080600080600060a08688031215611dd357600080fd5b611ddc86611614565b9450611dea60208701611614565b9350604086013592506060860135915060808601356001600160401b03811115611e1357600080fd5b611901888289016117f2565b600060208284031215611e3157600080fd5b61168d82611614565b600181811c90821680611e4e57607f821691505b602082108103611e6e57634e487b7160e01b600052602260045260246000fd5b50919050565b6020808252818101527f4f776e61626c653a2063616c6c6572206973206e6f7420746865206f776e6572604082015260600190565b60008251611ebb818460208701611694565b9190910192915050565b634e487b7160e01b600052603260045260246000fd5b634e487b7160e01b600052601160045260246000fd5b600060018201611f0357611f03611edb565b5060010190565b601f8211156105ad57600081815260208120601f850160051c81016020861015611f315750805b601f850160051c820191505b8181101561147057828155600101611f3d565b81516001600160401b03811115611f6957611f6961171c565b611f7d81611f778454611e3a565b84611f0a565b602080601f831160018114611fb25760008415611f9a5750858301515b600019600386901b1c1916600185901b178555611470565b600085815260208120601f198616915b82811015611fe157888601518255948401946001909101908401611fc2565b5085821015611fff5787850151600019600388901b60f8161c191681555b5050505050600190811b01905550565b6000821982111561202257612022611edb565b500190565b6001600160a01b03868116825285166020820152604081018490526060810183905260a060808201819052600090612061908301846116c4565b979650505050505050565b60006020828403121561207e57600080fd5b815161168d8161165a565b600060033d11156120a25760046000803e5060005160e01c5b90565b600060443d10156120b35790565b6040516003193d81016004833e81513d6001600160401b0381602484011181841117156120e257505050505090565b82850191508151818111156120fa5750505050505090565b843d87010160208285010111156121145750505050505090565b61212360208286010187611732565b50909594505050505056fea26469706673582212203f4f7d7690e51c4acbfa9094f10c235fbdf12c18b855692ee3545da10dd1abe364736f6c634300080f0033",
    "sourcePath": "/Users/anjalibansal/nft_project/contracts/ReviewProject.sol",
    "compiler": {
        "name": "solc",
        "version": "0.8.15+commit.e14f2714"
    },
    "functionHashes": {
        "balanceOf(address,uint256)": "00fdd58e",
        "balanceOfBatch(address[],uint256[])": "4e1273f4",
        "baseURI()": "6c0360eb",
        "createReview(string,string,string,uint256)": "b90278b3",
        "getReviewsForProject(string)": "54c813d6",
        "getReviewsForUser(address,string)": "3e99987f",
        "isApprovedForAll(address,address)": "e985e9c5",
        "mintReviewNFT(address,uint256,string)": "3c0d92d1",
        "name()": "06fdde03",
        "owner()": "8da5cb5b",
        "renounceOwnership()": "715018a6",
        "safeBatchTransferFrom(address,address,uint256[],uint256[],bytes)": "2eb2c2d6",
        "safeTransferFrom(address,address,uint256,uint256,bytes)": "f242432a",
        "setApprovalForAll(address,bool)": "a22cb465",
        "setTokenUri(string,uint256)": "d480924d",
        "supportsInterface(bytes4)": "01ffc9a7",
        "symbol()": "95d89b41",
        "transferOwnership(address)": "f2fde38b",
        "updateReview(address,uint256,string,string,string,uint256)": "c957edd2",
        "uri(uint256)": "0e89341c"
    },
    "gasEstimates": {
        "creation": {
            "codeDepositCost": "1709600",
            "executionCost": "infinite",
            "totalCost": "infinite"
        },
        "external": {
            "balanceOf(address,uint256)": "2695",
            "balanceOfBatch(address[],uint256[])": "infinite",
            "baseURI()": "infinite",
            "createReview(string,string,string,uint256)": "infinite",
            "getReviewsForProject(string)": "infinite",
            "getReviewsForUser(address,string)": "infinite",
            "isApprovedForAll(address,address)": "infinite",
            "mintReviewNFT(address,uint256,string)": "infinite",
            "name()": "infinite",
            "owner()": "2346",
            "renounceOwnership()": "28140",
            "safeBatchTransferFrom(address,address,uint256[],uint256[],bytes)": "infinite",
            "safeTransferFrom(address,address,uint256,uint256,bytes)": "infinite",
            "setApprovalForAll(address,bool)": "26772",
            "setTokenUri(string,uint256)": "infinite",
            "supportsInterface(bytes4)": "567",
            "symbol()": "infinite",
            "transferOwnership(address)": "28422",
            "updateReview(address,uint256,string,string,string,uint256)": "infinite",
            "uri(uint256)": "infinite"
        }
    }
}